:100000000C94BD0E0C94EE0E0C94EE0E0C94EE0EB1
:100010000C94EE0E0C94EE0E0C94EE0E0C94EE0E70
:100020000C94EE0E0C94EE0E0C94EE0E0C94EE0E60
:100030000C94EE0E0C94EE0E0C94EE0E0C94EE0E50
:100040000C94EE0E0C9493550C94EE0E0C94EE0E54
:100050000C94EE0E0C94EE0E0C94AE4D0C94E160EC
:100060000C94EE0E0C9439170C94EE0E0C94EE0ECC
:100070000C94EE0E0C94EE0E0C94EE0E0C94EE0E10
:100080000C94EE0E0C94EE0E0C94EE0E0C94EE0E00
:100090000C94EE0E0C94EE0E0C94EE0E0C94EE0EF0
:1000A0000C94EE0E0C94EE0E0C94EE0E0C94EE0EE0
:1000B0000C94EE0E0C94EE0E0C94EE0E0C94EE0ED0
:1000C0000C94EE0E0C94EE0E0C94EE0E0C94EE0EC0
:1000D0000C94EE0E0C94EE0E0C94EE0E0C94EE0EB0
:1000E0000C94EE0E65502D5132515D5169514551C0
:1000F0004A5155501B5B1E5B0D5B115B175B555BDB
:10010000225B265B2C5B305B345B3A5B3E5B425B85
:10011000555B485B4C5B505B505C555C5A5C645C67
:100120006E5CE75C785C805C885C925C9C5CA65C46
:10013000B55CBF5CE75CC95CD35CDD5C084AD73B5F
:100140003BCE016E84BCBFFDC12F3D6C74319ABDA6
:1001500056833DDA3D00C77F11BED9E4BB4C3E91CA
:100160006BAAAABE000000803F05A84CCDB2D44EB9
:10017000B93836A9020C50B9918688083CA6AAAABB
:100180002ABE000000803F004E414E494E4954595E
:10019000494E46CDCCCC3D0AD7233C17B7D1387752
:1001A000CC2B329595E6241FB14F0A000020410068
:1001B00000C84200401C4620BCBE4CCA1B0E5AAEB2
:1001C000C59D74434F4D4D554E49434154494F4E83
:1001D0000044525952554E004552524F5253004915
:1001E0004E464F004543484F0047322F4733206269
:1001F000616420706172616D65746572730A0025B7
:1002000069730025696D20256973002569682025BB
:10021000696D20256973002569642025696820259A
:10022000696D202569730025697920256964202579
:1002300069682025696D20256973005072696E74A4
:100240002074696D653A2000E401DF01D801D10115
:10025000C3016F66660044454255473A004B494C1E
:100260004C45442E20004D3131332053006F6B003C
:1002700020573A0020573A002C20002C20005448E8
:1002800045524D414C5F50524F54454354494F4E97
:10029000004155544F5245504F52545F53445F53A1
:1002A000544154555300454D455247454E43595FBF
:1002B00050415253455200434153455F4C494748D2
:1002C000545F4252494748544E45535300544F4798
:1002D000474C455F4C494748545300534F46545789
:1002E0004152455F504F574552004255494C445F7B
:1002F00050455243454E54004C4556454C494E4797
:100300005F44415441005A5F50524F4245004155AD
:10031000544F4C4556454C005052494E545F4A4F3D
:10032000420050524F4752455353004155544F528B
:1003300045504F52545F54454D5000564F4C554D0B
:10034000455452494300454550524F4D0053455284
:1003500049414C5F584F4E5F584F46460046495200
:100360004D574152455F4E414D453A4D61726C6962
:100370006E20312E312E3920284769746875622924
:1003800020534F555243455F434F44455F55524CB0
:100390003A68747470733A2F2F6769746875622EA7
:1003A000636F6D2F4D61726C696E4669726D776116
:1003B00072652F4D61726C696E2050524F544F43DD
:1003C0004F4C5F56455253494F4E3A312E30204DD7
:1003D000414348494E455F545950453A4C65617018
:1003E00066726F67204D6F642042696A204D2E76D9
:1003F0006F732045585452554445525F434F554EF4
:10040000543A3220555549443A6365646532613245
:10041000662D343161322D343734382D3962313222
:100420002D6335356336326633363766660A002FFC
:100430002F2000205400205200416363656C6572D8
:100440006174696F6E3A20500000000000000000E7
:100450000000000000546F6F206661722066726FAA
:100460006D207265666572656E636520706F696E7A
:10047000740A00FFFFFF205A002059005800202076
:100480004D61783A2000205A002059005800202061
:100490004D696E3A20004F6E20004F666600536F24
:1004A000667420656E6473746F70733A2000486FD1
:1004B00074656E64206F6666736574733A002046D7
:1004C0006C6F773A200000011C3F1D2FFFFFFFFFDC
:1004D0000E0F2730FFFFFFFF1F201E31FFFFFFFF22
:1004E000FFFFFF0A05FFFFFF222321FFFFFF252853
:1004F00024FFFFFF0A4409FF4308FF4520643A0038
:1005000020693A0020703A00496E76616C69642077
:1005100065787472756465720A0043290A00616225
:100520006C656420286D696E2074656D70200043D1
:100530006F6C642065787472756465732061726590
:1005400020004E6F2063617365206C696768740AD0
:1005500000454550524F4D204F4B0A006F6B002015
:100560005A3A0020593A0020583A00656E64737474
:100570006F7073206869743A2000656E71756575D7
:1005800065696E672022004B494C4C45442E200083
:100590005072696E7465722073746F707065642038
:1005A00064756520746F206572726F72732E2046B9
:1005B000697820746865206572726F7220616E645C
:1005C00020757365204D39393920746F2072657339
:1005D000746172742E202854656D70657261747533
:1005E00072652069732072657365742E205365747B
:1005F000206974206166746572207265737461721B
:1006000074696E67290A004E6F20436865636B73D7
:10061000756D2077697468206C696E65206E756DE4
:100620006265722C204C617374204C696E653A20AF
:1006300000636865636B73756D206D69736D6174BC
:1006400063682C204C617374204C696E653A2000FD
:100650004C696E65204E756D626572206973206EFF
:100660006F74204C617374204C696E65204E756DFB
:100670006265722B312C204C617374204C696E655D
:100680003A20004D3131300020496E76616C69644A
:1006900020657874727564657220000000000000A7
:1006A000000000000000000000874300008C4300B1
:1006B000003443486F6D696E67206661696C6564DC
:1006C0000050726F7465637465642050696E0A002F
:1006D000205A3A0020593A0020436F756E74205812
:1006E0003A0020453A00205A3A0020593A00583A38
:1006F000003A004361703A00496E76616C6964208B
:1007000065787472756465720A00526573656E640B
:100710003A200020746F6F206C6F6E6720657874CC
:10072000727573696F6E2070726576656E7465643C
:100730000A0020636F6C6420657874727573696F4A
:100740006E2070726576656E7465640A0024F4D458
:100750003050C38E20C2A24017828B7011127A9142
:100760000D816CD90AA861E108C758660761514339
:10077000061E4B5D05C145A7041A411104093D98A9
:1007800003713931034036DB0265339102D43054B2
:1007900002802E1D02632CEE01752AC501B028A02F
:1007A00001102781018F2564012B244B01E02234A5
:1007B00001AC211F018D200D01801FFC00841EED66
:1007C00000971DDF00B81CD200E61BC600201BBC32
:1007D00000641AB200B219A8000A19A0006A189998
:1007E00000D117910040178B00B516840031167E9A
:1007F00000B31579003A157300C7146F0058146AD6
:1008000000EE1366008813630025135E00C7125BB9
:10081000006C12570015125400C111510070114F95
:100820000021114B00D61049008D1047004610449E
:100830000002104200C00F4000800F3E00420F3CFB
:1008400000060F3B00CB0E3800930E37005C0E35D0
:1008500000270E3400F30D3200C10D3100900D3031
:1008600000600D2E00320D2D00050D2C00D90C2B33
:1008700000AE0C2900850C29005C0C2700350C27E4
:10088000000E0C2600E80B2400C40B2400A00B2350
:10089000007D0B23005A0B2100390B2100180B207F
:1008A00000F80A1F00D90A1E00BB0A1E009D0A1D7F
:1008B00000800A1D00630A1C00470A1B002C0A1B4B
:1008C00000110A1A00F7091A00DD091900C40919F4
:1008D00000AB091900920917007B0918006309177A
:1008E000004C09160036091600200916000A0915E1
:1008F00000F5081500E0081400CC081400B808142E
:1009000000A4081400900813007D0812006B08135F
:10091000005808120046081200340811002308117C
:10092000001208110001081100F0071000E0071084
:1009300000D0071000C0071000B0070F00A107107B
:100940000091070E0083070F0074070F0065070E64
:100950000057070E0049070E003B070D002E070E3B
:100960000020070D0013070D0006070D00F9060C07
:1009700000ED060D00E0060C00D4060C00C8060CC5
:1009800000BC060C00B0060C00A4060B0099060C77
:10099000008D060B0082060B0077060B006C060B21
:1009A0000061060A0057060B004C060A0042060AC0
:1009B0000038060A002E060A0024060A001A060A53
:1009C000001006090007060A00FD050900F40509E4
:1009D00000EB050900E2050900D9050900D0050969
:1009E00000C7050900BE050900B5050800AD0508EA
:1009F00000A50509009C050800940508008C050861
:100A000000840508007C050800740508006C0507D3
:100A100000650508005D050700560508004E05073E
:100A200000470507004005080038050700310507A5
:100A3000002A050700230507001C05060016050708
:100A4000000F0507000805060002050700FB040665
:100A500000F5040700EE040600E8040600E20407BF
:100A600000DB040600D5040600CF040600C9040616
:100A700000C3040600BD040600B7040600B1040567
:100A800000AC040600A6040600A00405009B0406B2
:100A90000095040500900406008A040500850405FD
:100AA00000800406007A0405007504050070040542
:100AB000006B04050066040500610405005C040584
:100AC0000057040500520405004D040500480405C4
:100AD00000430405003E0404003A04050035040503
:100AE00000300404002C040500270404002304053E
:100AF000001E0404001A0404001604050011040476
:100B0000000D0404000904050004040400000404AA
:100B100000FC030400F8030400F4030400F00304E1
:100B200000EC030400E8030400E4030400E0030411
:100B300000DC030400D8030400D4030400D0030441
:100B400000CC030400C8030300C503030024F4041D
:100B5000D9201BC40C5C0E9804C4095F02650771A0
:100B600001F405F900FB04B30048048700C10369E0
:100B7000005803550003034500BE023A00840231C9
:100B80000053022A002902250004022000E4011C6F
:100B900000C8011900AF0117009801140084011367
:100BA00000710110006101100051010E0043010DA0
:100BB0000036010B002B010B0020010B0015010971
:100BC000000C01090003010800FB000800F3000805
:100BD00000EB000700E4000600DE000600D8000677
:100BE00000D2000600CC000500C7000500C20005C9
:100BF00000BD000400B9000400B5000400B1000409
:100C000000AD000400A9000400A5000300A2000339
:100C1000009F0004009B0003009800030095000261
:100C20000093000300900003008D0002008B00037E
:100C30000088000200860002008400030081000298
:100C4000007F0002007D0002007B000200790002AC
:100C500000770001007600020074000200720001BB
:100C600000710002006F0002006D0001006C0002C4
:100C7000006A0001006900020067000100660001CF
:100C800000650001006400020062000100610001D3
:100C900000600001005F0002005D0001005C0001D7
:100CA000005B0001005A00010059000100580001DA
:100CB00000570001005600010055000100540001DA
:100CC00000530000005300010052000100510001D8
:100CD00000500001004F0001004E0000004E0001D6
:100CE000004D0001004C0001004B0000004B0001D2
:100CF000004A0001004900010048000000480001CE
:100D000000470001004600000046000100450000C9
:100D100000450001004400010043000000430001C1
:100D200000420000004200010041000000410001BB
:100D300000400001003F0000003F0001003E0000B5
:100D4000003E0001003D0000003D0001003C0000AD
:100D5000003C0000003C0001003B0000003B0001A3
:100D6000003A0000003A000100390000003900019B
:100D70000038000000380000003800010037000093
:100D80000037000100360000003600000036000188
:100D9000003500000035000000350001003400007F
:100DA0000034000000340001003300000033000074
:100DB0000033000100320000003200000032000168
:100DC000003100000031000000310001003000005F
:100DD0000030000000300001002F0000002F000054
:100DE000002F0000002F0001002E0000002E000048
:100DF000002E0001002D0000002D0000002D00003D
:100E0000002D0001002C0000002C0000002C000030
:100E1000002C0001002B0000002B0000002B000024
:100E2000002B0001002A0000002A0000002A000018
:100E3000002A00010029000000290000002900000C
:100E400000290000002900010028000000280000FF
:100E500000280000002800000028000100270000F2
:100E600000270000002700000027000000270001E5
:100E700000260000002600000026000000260000DA
:100E800000260001002500000025000000250000CC
:100E900000250000002500000025000100240000BE
:100EA00000240000002400000024000000240001B1
:100EB00000230000002300000023000000230000A6
:100EC0000023000000230000002300010022000096
:100ED000002200000022000000220000002200008A
:100EE000002200010021000000210000002100007C
:100EF000002100000021000000210000002100016D
:100F00000020000000200000002000000020000061
:100F10000020000000200000002000000020000150
:100F2000001F0000001F0000001F0000001F000045
:100F3000001F0000001F0000001F0001001E000035
:100F4000001E0000001E0000001E000000393000DE
:100F5000003325000087190000B00F0000DB0800F7
:100F600000BD040000740200003F010000627573C0
:100F7000793A2070617573656420666F7220696EBE
:100F80007075740A00627573793A207061757365C3
:100F90006420666F7220757365720A0062757379DA
:100FA0003A2070726F63657373696E670A004B490C
:100FB0004C4C45442E20004B494C4C2063617573CA
:100FC000656420627920746F6F206D756368206995
:100FD0006E6163746976652074696D65202D206388
:100FE000757272656E7420636F6D6D616E643A2008
:100FF000005072696E7465722068616C7465642E4D
:10100000206B696C6C28292063616C6C6564210A13
:10101000002020506C616E6E657242756666657266
:1010200042797465733A20002046726565204D65EB
:101030006D6F72793A2000436F6D70696C65643A28
:101040002044656320203320323031380A00207C70
:1010500020417574686F723A20284D617274696A14
:101060006E20566F73290A00323031382D30382DFA
:10107000303100204C617374205570646174656474
:101080003A2000312E312E390A004D61726C696EA2
:101090000020536F667477617265205265736574C2
:1010A0000A00205761746368646F67205265736536
:1010B000740A002042726F776E206F75742052653B
:1010C0007365740A002045787465726E616C2052F5
:1010D000657365740A00506F77657255700A007306
:1010E000746172740A005761726E696E673A2048C3
:1010F0006F6D696E672042756D7020446976697303
:101100006F72203C20310A000202040000A040005F
:1011100000A040000000400000874300008C430016
:101120000034434163746976652045787472756450
:1011300065723A20004572726F7220777269746925
:101140006E6720746F20454550524F4D210A002094
:1011500066697273740A005A0059005800486F6D2E
:101160006520000000484200004842000080400026
:1011700000000020746F6F206C6F6E6720657874BC
:10118000727573696F6E2070726576656E746564D2
:101190000A0020636F6C6420657874727573696FE0
:1011A0006E2070726576656E7465640A00656368AA
:1011B0006F3A00454550524F4D2064617461736928
:1011C0007A65206572726F722E0A00290A00206209
:1011D000797465733B20637263200053657474698E
:1011E0006E67732053746F726564202800290A00AB
:1011F0002062797465733B206372632000207374EE
:101200006F7265642073657474696E6773207265AC
:1012100074726965766564202800202863616C63B8
:10122000756C6174656429210A0020213D20004508
:101230004550524F4D20435243206D69736D617488
:101240006368202D202873746F7265642920002044
:1012500053697A653A2000496E6465783A20002027
:101260004D61726C696E3D563535290A0028454539
:1012700050524F4D3D00454550524F4D20766572BE
:1012800073696F6E206D69736D61746368200048C7
:10129000617264636F6465642044656661756C7433
:1012A0002053657474696E6773204C6F6164656464
:1012B0000A002823000028230000640000001027F3
:1012C00000000000C8430000C843000020420000A6
:1012D000C8435555854255558542000070449A993A
:1012E000C64220286D6D290020440020490020209E
:1012F0004D33303120500020440020490020500060
:1013000020204D333031204500504944207365740E
:1013100074696E67733A0A00205900205800202033
:101320004D323138205400486F74656E64206F660A
:1013300066736574733A0A00205A00205900202011
:101340004D323036205800486F6D65206F666673E9
:1013500065743A0A00204500205A002059002058A0
:101360000020540020530020204D32303520510001
:1013700020453C6D61785F655F6A65726B3E002059
:10138000583C6D61785F785F6A65726B3E20593CAE
:101390006D61785F795F6A65726B3E205A3C6D6162
:1013A000785F7A5F6A65726B3E00416476616E6356
:1013B00065643A20513C6D696E5F7365676D656E5B
:1013C000745F74696D655F75733E20533C6D696E23
:1013D0005F66656564726174653E20543C6D696E3C
:1013E0005F74726176656C5F666565647261746571
:1013F0003E0020540020520020204D323034205036
:1014000000416363656C65726174696F6E20287555
:101410006E6974732F7332293A20503C7072696E72
:10142000745F616363656C3E20523C7265747261E7
:1014300063745F616363656C3E20543C74726176D3
:10144000656C5F616363656C3E0A00204500205A4D
:101450000020590020204D3230312058004D617855
:10146000696D756D20416363656C65726174696F48
:101470006E2028756E6974732F7332293A0A002022
:101480004500205A0020590020204D32303320588A
:10149000004D6178696D756D206665656472617473
:1014A00065732028756E6974732F73293A0A0020BA
:1014B0004500205A0020590020204D393220580084
:1014C00053746570732070657220756E69743A0A82
:1014D0000020204D3230302044300A0020204D3290
:1014E000303020543120440020204D323030204410
:1014F000002044697361626C65640A0046696C612E
:101500006D656E742073657474696E67733A00203C
:1015100020473231202020203B0054524947474584
:10152000524544006F70656E003A20007A5F6D6925
:101530006E00795F6D696E00785F6D696E0052654F
:10154000706F7274696E6720656E6473746F70205B
:101550007374617475730A000000000100000001DB
:101560000000800055555500000040003333330023
:10157000AAAA2A004992240000002000C7711C007A
:1015800099991900D1451700555515003BB1130025
:101590002449120011111100000010000F0F0F005C
:1015A000E3380E0043790D00CCCC0C00C3300C00A6
:1015B000E8A20B0064210B00AAAA0A00703D0A00F1
:1015C0009DD80900427B090092240900DCD3080061
:1015D000888808001042080000000800F0C10700D9
:1015E0008787070075500700711C07003EEB060057
:1015F000A1BC06006990060066660600703E060003
:101600006118060017F4050074D105005BB00500F1
:10161000B290050062720500555505007839050045
:10162000B81E0500050505004EEC040087D4040033
:10163000A1BD040090A7040049920400C17D0400EC
:10164000EE690400C7560400444404005C32040000
:101650000821040041100400000004003FF00300D2
:10166000F8E0030026D20300C3C30300CCB5030097
:101670003AA803000A9B0300388E0300C0810300D0
:101680009F750300D0690300505E03001D530300E3
:1016900034480300913D030033330300162903004F
:1016A000381F030097150300300C030003030300E9
:1016B0000BFA020049F10200BAE802005CE0020005
:1016C0002DD802002DD0020059C80200B0C002007F
:1016D00031B90200DAB10200AAAA0200A0A30200F6
:1016E000BC9C0200FA9502005C8F0200DF880200B9
:1016F00082820200457C02002776020027700200E9
:10170000436A02007C640200D05E02003F5902007E
:10171000C85302006265640A002C207379737465F3
:101720006D2073746F707065642120486561746505
:10173000725F49443A2000426564206865617469BB
:101740006E67206661696C65640048656174696EE6
:1017500067206661696C6564004531204865617485
:10176000696E67206661696C656400453220486572
:101770006174696E67206661696C656400486561C3
:1017800074696E67206661696C65640070012C0184
:1017900090012701B0012201C0011D01F0011801D3
:1017A0001002130130020E016002090190020401CF
:1017B000C002FF000003FA004003F5008003F000C0
:1017C000D003EB002004E6007004E100E004DC003C
:1017D0004005D700C005D2004006CD00D006C800A5
:1017E0008007C3003008BE00F008B900C009B4008B
:1017F000B00AAF00B00BAA00D00CA500000EA000EC
:10180000500F9B00C01096005012910000148C00E5
:10181000C0158700B0178200B0197D00D01B78007A
:10182000001E730040206E0090226900F0246400C6
:1018300040275F0090295A00E02B5500102E5000E1
:1018400020304B0010324600E033410090353C0020
:101850001037370070383200A0392D00B03A280018
:10186000A03B2300603C1E00103D1900903D140079
:10187000103E0F00703E0A00C03E0500003F000011
:10188000403FFBFF803FF6FFC03FF1FF4532205451
:101890004845524D414C2052554E41574159004503
:1018A0003120544845524D414C2052554E415741EC
:1018B000590042454420544845524D414C20525510
:1018C0004E4157415900546865726D616C205275E4
:1018D0006E61776179004532204572723A204D4140
:1018E0005854454D50004531204572723A204D41C3
:1018F0005854454D50004572723A204D4158544558
:101900004D5020424544004D415854454D5020749F
:101910007269676765726564004532204572723A84
:10192000204D494E54454D50004531204572723A84
:10193000204D494E54454D50004572723A204D4954
:101940004E54454D5020424544004D494E54454D5E
:10195000502074726967676572656400202F0020EB
:1019600040002042403A0020403A00FFFDFCFAF8D7
:10197000F6F4F2F0EEECEAE9E7E5E3E1E0DEDCDAEA
:10198000D9D7D5D4D2D0CFCDCBCAC8C7C5C3C2C092
:10199000BFBDBCBAB9B7B6B4B3B2B0AFADACAAA90B
:1019A000A8A6A5A4A2A1A09E9D9C9A99989795945B
:1019B0009392908F8E8D8B8A89888786848382818B
:1019C000807F7E7D7B7A797877767574737271709B
:1019D0006F6E6D6C6B6A696867666564636261608F
:1019E0005F5E5D5C5B5A5958585756555453525177
:1019F00050504F4E4D4C4B4A4A4948474646454445
:101A000043424241403F3E3E3D3C3B3B3A39383801
:101A100037363535343332323130302F2E2E2D2CAF
:101A20002B2B2A2929282727262525242323222151
:101A30002120201F1E1E1D1C1C1B1B1A19191818E3
:101A4000171616151514131312121111100F0F0E6D
:101A50000E0D0D0C0C0B0A0A0909080807070606EB
:101A60000505040403030202010000000021002414
:101A70000027002A002D003000330001010000047F
:101A80000107010A0100002200250028002B002E7A
:101A9000003100340002010000050108010B0100C3
:101AA0000020002300260029002C002F0032000017
:101AB00001000003010601090105050505070508E8
:101AC000080808020202020A0A08080404040401C1
:101AD00001010101010101030303030303030304E3
:101AE0000707070C0C0C0C0C0C0C0C020202020673
:101AF000060606060606060B0B0B0B0B0B0B0B0163
:101B0000021020200808102040102040800201020E
:101B100001080402010102040810204080804020D6
:101B20001008040201800402018040201008040211
:101B3000010804020101020408102040800102048F
:101B4000081020408000000A0B02090C0D0E080747
:101B5000030401000000000000000000000000007D
:101B60000000000000000000000000000000000075
:101B70000012111000000000000000000000000032
:101B80000000000000000000000000556E6B6E6F4A
:101B9000776E20636F6D6D616E643A20220023645E
:101BA0006566696E652044454641554C545F4B64FB
:101BB000200023646566696E652044454641554CA6
:101BC000545F4B69200023646566696E6520444557
:101BD0004641554C545F4B7020005049442041759C
:101BE000746F74756E652066696E697368656421CB
:101BF0002050757420746865206C617374204B707C
:101C00002C204B6920616E64204B6420636F6E73DF
:101C100074616E74732066726F6D2062656C6F778D
:101C200020696E746F20436F6E66696775726174A8
:101C3000696F6E2E680A00504944204175746F74B4
:101C4000756E65206661696C6564212074696D65D7
:101C50006F75740A00453220544845524D414C205E
:101C600052554E4157415900453120544845524D37
:101C7000414C2052554E4157415900546865726D90
:101C8000616C2052756E617761790045322048653C
:101C90006174696E67206661696C65640045312016
:101CA00048656174696E67206661696C65640048A7
:101CB000656174696E67206661696C65640050498E
:101CC00044204175746F74756E65206661696C653A
:101CD00064212054656D706572617475726520743D
:101CE0006F6F20686967680A00204B643A20002003
:101CF0004B693A2000204B703A20000A20436C6167
:101D00007373696320504944200A002054753A20B7
:101D100000204B753A2000206D61783A2000206D3C
:101D2000696E3A200020643A200020626961733AAB
:101D30002000504944204175746F74756E652066AB
:101D400061696C65642120426164206578747275F4
:101D5000646572206E756D6265720A005049442098
:101D60004175746F74756E652073746172740A00C6
:101D70004572726F723A0000137C11241FBECFEFC0
:101D8000D1E2DEBFCDBF00E00CBF12E0A0E0B2E0C8
:101D9000E8E3FFE001E00BBF02C007900D92A63F11
:101DA000B107D9F72DE0A6EFB2E001C01D92AC3E1D
:101DB000B207E1F71EE0CDEBDEE000E006C02197C0
:101DC0000109802FFE010E945187CC3BD10780E0A2
:101DD0000807A9F70E9495660C949A870C94000056
:101DE0008091560690915706981759F0E92FF0E028
:101DF000EA52FA4F80819F5F9F779093570690E059
:101E000008958FEF9FEF0895FF920F931F93CF9345
:101E1000DF93FC0120812B3319F1D0915405D4308C
:101E2000F8F4F62EBC01C09170050C2F10E0F0E61E
:101E3000CF9FC00111248E529C4F0E947A87F801D7
:101E4000E853FC4FF082CF5FC43018F4C0937005A4
:101E500002C010927005DF5FD093540581E001C08D
:101E600080E0DF91CF911F910F91FF900895449AE8
:101E7000419A0895CF93DF9380E00E94145ACDE4F5
:101E8000D3E0688379838A839B8381E00E94145A1C
:101E90006C837D838E839F8382E00E94145A6887BF
:101EA00079878A879B87DF91CF910895CF92DF92C0
:101EB000EF920F931F93CF93DF9300D01F92CDB774
:101EC000DEB7E090BF0D19821A821B821C82CE0100
:101ED00001966C0100E212E027EB36E043EB56E09E
:101EE0006FEA76E08BEA96E00E94772A0F900F90D7
:101EF0000F900F90DF91CF911F910F91EF90DF9096
:101F0000CF9008950F931F93CF93DF9394E0899F11
:101F1000E00111248E010E571C4FFE01EA58FC4FC0
:101F2000DE01AC5DBC4F2D913D914D915C91608186
:101F30007181828193810E945D84F8016083718345
:101F400082839383FE01E556F94F85919591A59182
:101F5000B491FE01E257FC4F80839183A283B38347
:101F6000FE01E955F94F85919591A591B491CB5F0B
:101F7000DD4F88839983AA83BB83DF91CF911F9123
:101F80000F91089527EB36E043EB56E06FEA76E0D9
:101F90008BEA96E00C94125980916F00982F927002
:101FA00081FF05C080916F008D7F80936F008091CD
:101FB000090D80930A0D8093BB068093140784E675
:101FC0008093380728EE33E030932D0D20932C0DAD
:101FD000992329F080916F00826080936F0081E0E7
:101FE0008093CB0D0E94025945DF8CE0EDE4F3E0D5
:101FF000ABEAB6E001900D928A95E1F7C3CF2F923C
:102000003F924F925F926F927F929F92AF92BF9258
:10201000CF92DF92EF92FF920F931F93CF93DF93B4
:10202000CDB7DEB728970FB6F894DEBF0FBECDBF91
:102030001A012B01922EF32EC82ED12CF601ED5849
:10204000FB4FE491AA24A3941E160CF4A12CBB24EC
:10205000B39420E030E0A901C201B1010E9483865F
:1020600018160CF0B12CCC0CDD1CCC0CDD1CC60100
:102070008555994F3C01FC01108211821282138216
:1020800081DFF3012082318242825382E090BF0DD2
:1020900020E030E0A901B801892D9F2D0E943380F6
:1020A00081110AC0F601ED59FE4E85919591A591D9
:1020B000B4918C019A2EFB2EC801A92DBF2D8D83C2
:1020C0009E83AF83B88719821A821B821C82CE013D
:1020D00001966C018E010B5F1F4F27EB36E043EB3F
:1020E00056E06FEA76E08BEA96E00E94772A0E943B
:1020F0000259AB1459F080915205882319F01092BF
:10210000520504C083EB96E00E948C2728960FB6F8
:10211000F894DEBF0FBECDBFDF91CF911F910F911D
:10212000FF90EF90DF90CF90BF90AF909F907F9007
:102130006F905F904F903F902F900895809174031F
:1021400090917503009731F04AE050E060E070E054
:102150000C94877D60E070E0CB010895EFDF97FD80
:102160000AC0ECDF6F3F71058105910509F02CF481
:10217000E5DF862F089580E008958FEF0895809120
:10218000740390917503892B31F0E8DF91E08111A0
:1021900003C090E001C091E0892F08950F931F9331
:1021A000CF938091740390917503009711F1FC0116
:1021B0008F01C1912C2F2F7DA9F0C53411F0C536A8
:1021C000B9F7F801108260E070E08091740390919B
:1021D00075030E94347CF801C083562F472F382F97
:1021E000292F0BC060E070E0CF911F910F910C94EC
:1021F000347C50E040E030E020E0652F742F832FE6
:10220000922FCF911F910F91089581548A3108F038
:1022100042C0E82FF0E0409110035091110360910B
:1022200012037091130304C07695679557954795EF
:102230008A95D2F7842F817040FF2FC0EA50FD4F5E
:102240009081992309F1E091AD0DF091AE0DE90F68
:10225000F11D908120ED290F2A3098F09E3211F463
:1022600091810CC09D3211F09B3271F4918120ED6F
:10227000290F2A3030F09E3239F4928190539A30EF
:1022800018F42E2F9F2F02C020E090E020937403BB
:1022900090937503089580E008950895B6DF88232C
:1022A00041F081E02091740330917503232B09F4F0
:1022B00080E008959F92AF92BF92CF92DF92EF920B
:1022C000FF920F931F93CF93DF938AE4A82E82E0AF
:1022D000B82E0FEA1DE0CBEAD6E092E8C92E93E0D3
:1022E000D92E2CECE22E23E0F22E912CF5018191D7
:1022F0005F018BDF882301F151DFF701208121117C
:1023000004C02091D003222339F0288139814A81E9
:102310005B810E945D840AC0F3E09F1639F0F601EC
:1023200020813181428153810E945C84F801608365
:1023300071838283938309C088819981AA81BB813B
:10234000F80180839183A283B38393940C5F1F4F22
:102350002496F4E0CF0ED11C2FEFE21AF20A84E0AB
:102360009812C4CF86E49ADF8823B9F017DF20E003
:1023700030E0A9010E94838618167CF40FDF20E06C
:1023800030E040E752E40E94398560932002709368
:1023900021028093220290932302DF91CF911F911B
:1023A0000F91FF90EF90DF90CF90BF90AF909F90F4
:1023B000089580E1EBEAF6E0AFEABDE001900D920E
:1023C0008A95E1F708959091C00095FFFCCF809326
:1023D000C60008958F929F92AF92BF92CF92DF92E4
:1023E000EF92FF920F931F93CF93DF93CDB7DEB79A
:1023F00028970FB6F894DEBF0FBECDBF809147027D
:10240000882321F08FEA9DE00E94002280911B0D1D
:1024100083FDA5C0C090BB0DD090BC0DE090BD0D5C
:10242000F090BE0D2091B7063091B8064091B906E4
:102430005091BA06C701B6010E943380882309F47F
:102440008EC080912F07811133C0E091BF0D84E0D1
:10245000E89FF0011124E05DF84F60817181828175
:1024600093810E94A18520912C0230912D02621748
:102470007307F4F4C092B706D092B806E092B9069A
:10248000F092BA06EDEAF1E184918F010F5F1F4FE0
:10249000882319F098DFF801F7CFE2E3F7E08491A1
:1024A0008F010F5F1F4F882319F08DDFF801F7CFE1
:1024B0008090BB0D9090BC0DA090BD0DB090BE0D56
:1024C0002091B7063091B8064091B9065091BA06EE
:1024D000C501B4010E945C846B017C0120E030E006
:1024E000A9010E94838687FF04C0F7FAF094F7F8E9
:1024F000F094E091BF0D94E0E99FF0011124EC5DB0
:10250000FD4F2081318142815381C701B6010E9474
:10251000988020E030E048E453E40E948386181657
:10252000F4F48092B7069092B806A092B906B092E1
:10253000BA06EDEAF1E184918F010F5F1F4F882306
:1025400019F041DFF801F7CFE3E1F7E084918F0163
:102550000F5F1F4F882319F036DFF801F7CF609126
:10256000480270914902072E000C880B990B0E94BB
:102570003980209120023091210240912202509115
:1025800023020E9498802AE037ED43E25CE30E9438
:1025900098806D837E838F839887E090BF0D19822A
:1025A0001A821B821C82CE0101966C018E010B5F88
:1025B0001F4F2BEB3DE047EB5DE063EB7DE08FEAE7
:1025C0009DE00E94772A80E1EFEAFDE0ABEAB6E009
:1025D00001900D928A95E1F728960FB6F894DEBF28
:1025E0000FBECDBFDF91CF911F910F91FF90EF9064
:1025F000DF90CF90BF90AF909F908F900895CF9332
:10260000DF93E0E7FDE18491EF012196882319F043
:10261000DADEFE01F8CFE1ECF6E08491EF012196DD
:10262000882319F0D0DEFE01F8CFDF91CF91089515
:10263000CF92DF92EF92FF920F931F93CF93DF938E
:1026400080915405843008F01BC1CADBAC0197FDB2
:1026500017C1982F2091E00D3091E10D8A3019F0CB
:102660009D3009F0DCC01092D5052115310519F413
:102670000E948D52E5CFF901EB58FA4F108210926B
:10268000E10D1092E00DC5E7D5E0FE0181918032A9
:1026900011F4EF01FACF8E3409F07EC0209709F4CF
:1026A0007BC063E876E0CE010E94EB7F8C01892B32
:1026B00041F06EE470E0CE0104960E9466870097B8
:1026C00009F4CE014AE050E060E070E001960E941B
:1026D000877D609371057093720580937305909365
:1026E0007405C090E20DD090E30DE090E40DF09001
:1026F000E50D2FEFC21AD20AE20AF20A6C157D0527
:102700008E059F0529F0012B19F480E596E02AC07B
:102710006AE270E0CE010E948F879C01009701F170
:10272000982F9C1B10E0992339F09150FE01E90F7E
:10273000F11D80811827F7CF4AE050E060E070E09B
:10274000C90101960E94877D012F10E020E030E052
:10275000601771078207930779F081E396E002C062
:1027600087E096E0DF91CF911F910F91FF90EF905E
:10277000DF90CF900C946366809171059091720503
:10278000A0917305B09174058093E20D9093E30DD1
:10279000A093E40DB093E50D8091150281111EC048
:1027A00067E470E0CE010E9466870097B9F04AE0C6
:1027B00050E060E070E001960E94877D6430710512
:1027C0008105910558F4E0E9F5E084918F010F5FF0
:1027D0001F4F882319F0F7DDF801F7CF63EE72E0A1
:1027E000CE010E947187892B11F41092160268EEB7
:1027F00072E0CE010E947187892B21F487E895E071
:102800000E948C276DEE72E0CE010E947187892BA9
:1028100009F4C2DB61E085E795E0F6DA11CF2F35E8
:1028200031050CF00DCF9C35B9F4DADA97FD08CFFD
:102830002091D505211104CF2091E00D3091E10DBB
:10284000A9014F5F5F4F5093E10D4093E00DF901F7
:10285000EB58FA4F8083F4CE9B3319F481E08093D8
:10286000D5058091D5058111EBCEC90101969093D4
:10287000E10D8093E00DF901EB58FA4F4083E0CE73
:10288000DF91CF911F910F91FF90EF90DF90CF904C
:102890000895BF92CF92DF92EF92FF920F931F9312
:1028A000CF93DF93CDB7DEB76E970FB6F894DEBF48
:1028B0000FBECDBF60916E0570916F0561157105FA
:1028C00051F14DE150E0CE0101967C010E94DC7F88
:1028D0001E8EF7018F010E191F09B190BB2021F147
:1028E0009AE0B912F7CF20C0B7018AE795E00E94BD
:1028F000FC5682E268DD8AE066DDBB2051F10F5FA5
:102900001F4F80916E0590916F05080F191F10934E
:102910006F0500936E0581E020916E0530916F0583
:10292000232BD1F480E018C0F701E00FF11F1082D3
:1029300060E0C70169DA882371F3EDEAF1E184917F
:102940006F019FEFC91AD90A882371F23CDDF601A5
:10295000F6CF00E010E0DBCF6E960FB6F894DEBF46
:102960000FBECDBFDF91CF911F910F91FF90EF90E0
:10297000DF90CF90BF9008958F929F92AF92BF92B9
:10298000EF92FF920F931F93CF93DF93CDB7DEB7F4
:10299000A0970FB6F894DEBF0FBECDBF61157105CD
:1029A0008105910589F100E0842E912CA12CB12C98
:1029B000102FEE24E394F12CEC0EFD1EE00EF11C22
:1029C00007FDFA94A50194010E942184F701608318
:1029D000B901CA010F5F611571058105910541F7C4
:1029E0001F3F21F1E1E0F0E0EC0FFD1FE10FF11DD1
:1029F00017FDFA9580818A3010F097E301C090E3CB
:102A0000890FE1DC1150ECCF80E3A0960FB6F8946B
:102A1000DEBF0FBECDBFDF91CF911F910F91FF9011
:102A2000EF90BF90AF909F908F90CDCCA0960FB6B7
:102A3000F894DEBF0FBECDBFDF91CF911F910F91F4
:102A4000FF90EF90BF90AF909F908F9008951F934D
:102A5000CF93DF93182FEDEAF1E18491EF012196F6
:102A6000882319F0B0DCFE01F8CF84E5ACDC612FDF
:102A700070E080E090E04AE07FDF80E2A4DCE8EFF5
:102A8000F6E08491EF012196882319F09CDCFE0189
:102A9000F8CFDF91CF911F910895EF92FF920F939E
:102AA0001F93CF93DF937C0184E5F8DBD82F882335
:102AB00021F154DBC82F8230E4F0EDEAF1E184919A
:102AC0008F010F5F1F4F882319F07DDCF801F7CFCE
:102AD0008DE479DCB70180E090E04AE04DDF6C2FB7
:102AE000CC0F770B88E896E00E94E3568AE06BDC17
:102AF00008C08093C603D0E004C08091BF0D8093CE
:102B0000C6038D2FDF91CF911F910F91FF90EF9012
:102B10000895CF92DF92EF92FF926B017C0197FFB5
:102B20000AC08DE250DCF094E094D094C094C11CB3
:102B3000D11CE11CF11C4AE0C701B601FF90EF90E7
:102B4000DF90CF9019CFCF93DF938091560680937B
:102B50005706EAE0F7E08491EF012196882319F007
:102B600032DCFE01F8CF8091E20D9091E30DA0914F
:102B7000E40DB091E50DBC01CD016F5F7F4F8F4F2C
:102B80009F4FC7DF8AE01FDCE0915305F0E0E85378
:102B9000FC4F8081882321F0DF91CF910C94922209
:102BA000DF91CF910895FF920F931F93CF93DF93FF
:102BB000F82E092F162FE3EFF6E08491EF0121960E
:102BC000882319F000DCFE01F8CFEF2DF02F84915F
:102BD000EF012196882319F0F6DBFE01F8CFE1EF33
:102BE000F6E08491EF012196882319F0ECDBFE01D9
:102BF000F8CF612F70E080E090E08BDF8AE0DF911A
:102C0000CF911F910F91FF90DECB4F925F926F9209
:102C10007F928F929F92AF92BF92CF92DF92EF926C
:102C2000FF92CF93DF9320918203309183034091F1
:102C30008403509185036091AB067091AC0680913E
:102C4000AD069091AE060E945D84AB01BC018EEE94
:102C500096E00E94C65620918603309187034091EA
:102C60008803509189036091AF067091B0068091FE
:102C7000B1069091B2060E945D84AB01BC018AEE60
:102C800096E00E94C65620918A0330918B034091B2
:102C90008C0350918D036091B3067091B4068091BE
:102CA000B5069091B6060E945D84AB01BC0186EE2C
:102CB00096E00E94C6564091B7065091B8066091C2
:102CC000B9067091BA0682EE96E00E94C6568091CF
:102CD0006F00982F927081FF05C080916F008D7FEB
:102CE00080936F004090140350901503609016037A
:102CF000709017038090180390901903A0901A0306
:102D0000B0901B03C0901C03D0901D03E0901E03E5
:102D1000F0901F03992329F080916F0082608093C7
:102D20006F00E8EDF6E08491EF012196882319F019
:102D30004ADBFE01F8CFC301B201EBDEE4EDF6E0C1
:102D40008491EF012196882319F03DDBFE01F8CF35
:102D5000C501B401DEDEE0EDF6E08491EF012196DD
:102D6000882319F030DBFE01F8CFC701B601D1DEB0
:102D70008AE0DF91CF91FF90EF90DF90CF90BF90EE
:102D8000AF909F908F907F906F905F904F901BCBF4
:102D90008F929F92AF92BF92CF92DF92EF92FF926B
:102DA000CF936B017C01B42E20E030E0A9010E949A
:102DB000338087FF06C08DE206DBF7FAF094F7F860
:102DC000F094C0E060E070E080E09FE3CB1541F05C
:102DD0002DEC3CEC4CEC5DE30E949880CF5FF6CF8D
:102DE0009B01AC01C701B6010E945D846B017C01AF
:102DF0000E94A6854B015C014AE0BEDDCC2379F13F
:102E0000C501B4010E9437809B01AC01C701B60126
:102E10000E945C846B017C018EE2D5DA20E030E018
:102E200040E251E4C701B6010E9498804B015C0169
:102E30000E94A1856B01770FEE08FF08C701B6015C
:102E400068DEC701B6010E9439809B01AC01C50153
:102E5000B4010E945C846B017C01C150F9F6CF91F2
:102E6000FF90EF90DF90CF90BF90AF909F908F90AA
:102E700008951F920F920FB60F9211240BB60F9266
:102E80002F938F939F93EF93FF9320915706E09199
:102E9000560681E08E0F8F779091C600281729F093
:102EA000F0E0EA52FA4F9083E82FE0935606FF9144
:102EB000EF919F918F912F910F900BBE0F900FBEAE
:102EC0000F901F9018952F923F924F925F926F92A2
:102ED0007F928F929F92AF92BF92CF92DF92EF92AA
:102EE000FF920F931F93CF93DF93CDB7DEB72F974A
:102EF0000FB6F894DEBF0FBECDBFF8948FEF9FEFF3
:102F00009093890080938800BAE0DB2E1F861E868E
:102F1000789480919D0690919E06A0919F06B09115
:102F2000A006892B8A2B8B2B09F0E1C18091CB0D58
:102F30008823D1F01092CB0D8091C90D9091CA0DCC
:102F4000892B91F010925E061092CA0D1092C90D55
:102F500090910A0D8091090D981731F08091090D1B
:102F60008F5F8F708093090D8091C90D9091CA0D6C
:102F7000892B09F4BCC10091990610919A06209101
:102F80009B0630919C068091950690919606A091A3
:102F90009706B091980640918C0650E060E070E092
:102FA000801B910BA20BB30B481759076A077B07CD
:102FB00010F4DB01CA01482F800F911FA21FB31F1D
:102FC0008093990690939A06A0939B06B0939C06D3
:102FD00080918400909185008096809073069090F7
:102FE0007406A0907506B090760600916306109165
:102FF00064062091650630916606080D191D2A1D8C
:103000003B1D00937306109374062093750630934E
:10301000760637FD1CC0169A009114031091150313
:10302000209116033091170380901702082C000C92
:103030009908AA08BB08080D191D2A1D3B1D0093FD
:1030400014031093150320931603309317038090F5
:10305000770690907806A0907906B0907A06009155
:103060006706109168062091690630916A06080D7E
:10307000191D2A1D3B1D0093770610937806209397
:10308000790630937A0637FD21C0209105012095FD
:1030900022702093030100911803109119032091CD
:1030A0001A0330911B0380901802082C000C990819
:1030B000AA08BB08080D191D2A1D3B1D0093180303
:1030C0001093190320931A0330931B0380907B06FF
:1030D00090907C06A0907D06B0907E0600916B06D5
:1030E00010916C0620916D0630916E06080D191D29
:1030F0002A1D3B1D00937B0610937C0620937D06C2
:1031000030937E0637FD1CC0469A00911C03109137
:103110001D0320911E0330911F0380901902082C7B
:10312000000C9908AA08BB08080D191D2A1D3B1D93
:1031300000931C0310931D0320931E0330931F0361
:1031400080907F0690908006A0908106B0908206C5
:1031500000916F06109170062091710630917206F1
:10316000080D191D2A1D3B1D00937F061093800634
:10317000209381063093820637FD22C020915906A4
:10318000211102C0439A01C0409A0091200310917E
:103190002103209122033091230380901A02082CEE
:1031A000000C9908AA08BB08080D191D2A1D3B1D13
:1031B00000932003109321032093220330932303D1
:1031C000209184003091850028173907C8F30091B9
:1031D000730610917406209175063091760637FDBE
:1031E00015C080905F0690906006A0906106B09038
:1031F0006206081919092A093B09009373061093FE
:10320000740620937506309376061698009177061B
:10321000109178062091790630917A0637FD19C011
:1032200080905F0690906006A0906106B090620664
:10323000081919092A093B090093770610937806A3
:103240002093790630937A0620910501227020930D
:10325000030100917B0610917C0620917D06309140
:103260007E0637FD15C080905F0690906006A090A6
:103270006106B0906206081919092A093B090093F2
:103280007B0610937C0620937D0630937E0646983D
:1032900000917F0610918006209181063091820670
:1032A00037FD1BC080905F0690906006A09061067D
:1032B000B0906206081919092A093B0900937F0694
:1032C0001093800620938106309382062091590640
:1032D000211102C0439801C04098415041F0209113
:1032E00084003091850028173907C8F375CE809186
:1032F0009D0690919E06A0919F06B091A006892BF5
:103300008A2B8B2B09F0D3C5E091C90DF091CA0D22
:10331000309709F453C78091990690919A06A0912D
:103320009B06B0919C06409195065091960660913F
:1033300097067091980684179507A607B707D0F0EF
:1033400010925E061092CA0D1092C90D90910A0D4E
:103350008091090D981709F431C78091090D8F5F8D
:103360008F708093090DA0ED4A2EA7E05A2E612C94
:10337000712CE5C34091910650919206609193069D
:1033800070919406481759076A077B0708F4A4C18F
:1033900080908D0690908E06A0908F06B09090063B
:1033A00086A997A9A0ADB1AD88169906AA06BB0655
:1033B00008F076C181149104A104B10449F480910C
:1033C0005A0690915B06A0915C06B0915D0664C1BF
:1033D000B0E0AC2D882D392D2A2DF981EA817B8131
:1033E0006C815D814E819F815091A80D589F712DF8
:1033F00066274091A90D489F700D611D1090AA0D80
:10340000189E600D539F700D611D439F600D529F6C
:10341000600DF72FE62FF79F512D44279927F69F30
:10342000500D411D9B1FE79F500D411D9B1FE69FA7
:10343000400D911DF42FE92FF79FA12D44279927C7
:10344000F69FA00D411D9B1FE79FA00D411D9B1FD7
:10345000E69F400D911DF42FE92F552780915A06C4
:1034600030915B0620915C0600906D050B2A09F4F3
:1034700083C0409169054F9F51198B0B3B0B2B0B60
:1034800090916A059F9F501981093B0B2B0BA091CE
:103490006B05AF9F801931092B0B4E9F5019810985
:1034A0003B0B2B0B9E9F801931092B0BAE9F3019C4
:1034B0002109F79FA12D44279927F69FA00D411DB3
:1034C0009B1FE79FA00D411D9B1FE69F400D911D77
:1034D000F42FE92F409165054F9F510D8B1F3B1F26
:1034E0002B1F909166059F9F500D811D3B1F2B1F29
:1034F000A0916705AF9F800D311D2B1F4E9F500D72
:10350000811D3B1F2B1F9E9F800D311D2B1FAE9FCA
:10351000300D211DF79FA12D44279927F69FA00D5F
:10352000411D9B1FE79FA00D411D9B1FE69F400D66
:10353000911DF42FE92F409161054F9F51198B0B7D
:103540003B0B2B0B909162059F9F501981093B0B00
:103550002B0BA0916305AF9F801931092B0B4E9F58
:10356000501981093B0B2B0B9E9F801931092B0BA6
:10357000AE9F3019210982C0409169054F9F510DBE
:103580008B1F3B1F2B1F90916A059F9F500D811D24
:103590003B1F2B1FA0916B05AF9F800D311D2B1F73
:1035A0004E9F500D811D3B1F2B1F9E9F800D311D77
:1035B0002B1FAE9F300D211DF79FA12D442799276A
:1035C000F69FA00D411D9B1FE79FA00D411D9B1F56
:1035D000E69F400D911DF42FE92F409165054F9F07
:1035E00051198B0B3B0B2B0B909166059F9F50192C
:1035F00081093B0B2B0BA0916705AF9F8019310907
:103600002B0B4E9F501981093B0B2B0B9E9F801952
:1036100031092B0BAE9F30192109F79FA12D4427AB
:103620009927F69FA00D411D9B1FE79FA00D411DEF
:103630009B1FE69F400D911DF42FE92F40916105DE
:103640004F9F510D8B1F3B1F2B1F909162059F9F1A
:10365000500D811D3B1F2B1FA0916305AF9F800D57
:10366000311D2B1F4E9F500D811D3B1F2B1F9E9FF9
:10367000800D311D2B1FAE9F300D211D1124CA2E30
:10368000F983EA837B836C835D834E839F8390E021
:10369000932BA0E0B0E0A22B2DE43FE011E011C09D
:1036A00082A993A9A4A9B5A9F7CFB695A79597958F
:1036B0008795110F2C5F3F4F4FE02936340709F4EF
:1036C0004CC4F9014591559165917491481759077A
:1036D0006A077B0750F341C44091880650918906E0
:1036E00060918A0670918B06481759076A077B0715
:1036F00008F0B8C18091870681111FC0DF01AE5B61
:10370000BF4FED90FD900D911C9113971D962D913B
:103710003D914D915C9162A973A984A995A90E94DC
:10372000D35551E050938706E091C90DF091CA0D31
:1037300082A893A8A4A8B5A886C180918306909179
:103740008406A0918506B091860642AD53AD64AD66
:1037500075AD84179507A607B70708F06EC10097E7
:10376000A105B10549F480905A0690905B06A0909F
:103770005C06B0905D0667C130E04885882E292F31
:103780008A2FE9857A856B855C859D859091A80D4A
:10379000989D612D55272090A90D289C600D511DE5
:1037A0001090AA0D189C500D929F600D511D229EE5
:1037B000500D989F500DE62F752FE69F912D2224D6
:1037C0003324E59F900D211C331E769F900D211C04
:1037D000331E759F200C311CE22D732DE69F412D69
:1037E00022243324E59F400D211C331E769F400D7B
:1037F000211C331E759F200C311CE22D732D99273F
:1038000080905A0620915B0680915C0600906D05C1
:10381000032A09F483C0209069052E9E9119830A1A
:10382000230B830B30906A053E9E90198108230B71
:10383000830B40916B054E9F80182109830B279EB7
:1038400090198108230B830B379E80182109830B65
:10385000479F20198109E69F412D22243324E59FAB
:10386000400D211C331E769F400D211C331E759F79
:10387000200C311CE22D732D209065052E9E910D9C
:10388000831E231F831F309066053E9E900D811C72
:10389000231F831F409167054E9F800C211D831FAE
:1038A000279E900D811C231F831F379E800C211D96
:1038B000831F479F200D811DE69F412D2224332425
:1038C000E59F400D211C331E769F400D211C331EA9
:1038D000759F200C311CE22D732D209061052E9ECA
:1038E0009119830A230B830B309062053E9E901939
:1038F0008108230B830B409163054E9F801821099B
:10390000830B279E90198108230B830B379E801809
:103910002109830B479F2019810982C020906905E6
:103920002E9E910D831E231F831F30906A053E9E9D
:10393000900D811C231F831F40916B054E9F800CAF
:10394000211D831F279E900D811C231F831F379EDF
:10395000800C211D831F479F200D811DE69F412D57
:1039600022243324E59F400D211C331E769F400DF9
:10397000211C331E759F200C311CE22D732D2090CD
:1039800065052E9E9119830A230B830B30906605E3
:103990003E9E90198108230B830B409167054E9F33
:1039A00080182109830B279E90198108230B830B14
:1039B000379E80182109830B479F20198109E69FB4
:1039C000412D22243324E59F400D211C331E769F78
:1039D000400D211C331E759F200C311CE22D732DD0
:1039E000209061052E9E910D831E231F831F309012
:1039F00062053E9E900D811C231F831F409163052D
:103A00004E9F800C211D831F279E900D811C231F1C
:103A1000831F379E800C211D831F479F200D811D12
:103A200011244887E9877A876B875C879D87912C6B
:103A3000922AA12CB12CA82A06C0E15BFF4F8080FE
:103A40009180A280B3808DE49FE021E0FC0145914C
:103A5000559165917491481559056A057B0508F4DF
:103A6000DFC2E9C280911C0290911D02A0911E024A
:103A7000B0911F02B7FF5BC0E95BFF4F8080918070
:103A8000A280B3808DE49FE021E0FC014591559137
:103A900065917491481559056A057B0550F4B694F3
:103AA000A79497948794220F0496AFE089369A07DB
:103AB00061F720938C06B0E28B169104A104B10447
:103AC00008F44DC320E2821A9108A108B1088114BC
:103AD00038E09306A104B10408F41DC344E0949EA9
:103AE000C0011124835B944FFC01329625913491DF
:103AF000782D6627739FA001729F410D561F069473
:103B0000461F561F112460E070E0FC01259134919E
:103B1000C901A0E0B0E0841B950BA60BB70B809306
:103B20001C0290931D02A0931E02B0931F024090AE
:103B30001C0250901D0260901E0270901F02809126
:103B4000C90D9091CA0D892B09F0A9C10E94745624
:103B50009093CA0D8093C90D892B09F4A0C1E091FF
:103B6000C90DF091CA0D808183FF3EC08589968979
:103B7000A789B08D8093140390931503A093160327
:103B8000B0931703818D928DA38DB48D809318030C
:103B900090931903A0931A03B0931B03858D968D00
:103BA000A78DB0A180931C0390931D03A0931E03C7
:103BB000B0931F0381A192A1A3A1B4A1809320037C
:103BC00090932103A0932203B093230390910A0DB5
:103BD0008091090D981709F4B9CF8091090D8F5F75
:103BE0008F708093090DB2CF058916892789308D92
:103BF00081E0011511052105310509F480E0818C72
:103C0000928CA38CB48C81149104A104B10409F0AA
:103C10008260458D568D678D70A1411551056105F6
:103C2000710509F0846080935E06109283061092FD
:103C30008406109285061092860610928D061092C8
:103C40008E0610928F061092900685A196A1A7A1CC
:103C5000B0A58093950690939606A0939706B0938F
:103C60009806442455243201481A590A6A0A7B0AE4
:103C700040927F0650928006609281067092820682
:103C800040927B0650927C0660927D0670927E0682
:103C900040927706509278066092790670927A0682
:103CA0004092730650927406609275067092760682
:103CB000000F111F221F331F009363061093640629
:103CC0002093650630936606880C991CAA1CBB1CC1
:103CD0008092670690926806A0926906B0926A0682
:103CE000440F551F661F771F40936B0650936C0659
:103CF00060936D0670936E0641A152A163A174A1F9
:103D0000440F551F661F771F40936F065093700630
:103D10006093710670937206880F991FAA1FBB1FCC
:103D200080935F0690936006A0936106B09362064D
:103D30001092990610929A0610929B0610929C0679
:103D400082A593A5A4A5B5A580939106909392060C
:103D5000A0939306B093940686A597A5A0A9B1A9B0
:103D60008093880690938906A0938A06B0938B0669
:103D700041A540935906EA5BFF4F50818091580658
:103D800058130AC080911B0290E0242F042E000CCF
:103D9000330B2817390731F05093580640931B0214
:103DA0000E94255680915A0381110E9471468FEF1F
:103DB0009FEFDC0180931C0290931D02A0931E02D2
:103DC000B0931F02E091C90DF091CA0DDF01DE969C
:103DD000ED90FD900D911C9122A933A944A955A9FC
:103DE000E55BFF4F60817181828193810E94D35591
:103DF00010928706E091C90DF091CA0DE55BFF4F67
:103E000080809180A280B3808DE49FE021E0FC015E
:103E10004591559165917491481559056A057B0541
:103E200058F4B694A79497948794220F049649E681
:103E30005FE04817590759F720938C0620E2821655
:103E40009104A104B10408F4B3C190E2891A910865
:103E5000A108B1088114A8E09A06A104B10408F4ED
:103E600084C1B4E09B9EC0011124835B944FFC018C
:103E7000329625913491782D6627739FA001729F09
:103E8000410D561F0694461F561F1124FC014590F4
:103E90005490612C712C441A550A610871084092A3
:103EA0009D0650929E0660929F067092A006809199
:103EB0009D0690919E06A0919F06B091A006AC0130
:103EC000BD01009721E0A207B10520F04FEF5FEFA1
:103ED00060E070E0841B950BA60BB70B80939D06EA
:103EE00090939E06A0939F06B093A006F8948091AD
:103EF0008400909185004096DA94DD2061F0AE85D3
:103F0000BF85A40FB51FBF87AE87A817B90710F4E8
:103F10000C94881702C09F878E872E853F8530932B
:103F200089002093880078942F960FB6F894DEBF0E
:103F30000FBECDBFDF91CF911F910F91FF90EF90FA
:103F4000DF90CF90BF90AF909F908F907F906F90B9
:103F50005F904F903F902F90089510938C06803281
:103F60009105A105B10508F456C08097A109B109D2
:103F7000811528E09207A105B105F0F044E0949F77
:103F800090011124235B344FF901329645915491ED
:103F9000EE27859FB001849F610D7E1F06946E1FE2
:103FA0007E1F1124F90145905490612C712C461A02
:103FB000570A6108710822C0AC01BD01769567956A
:103FC00057954795FA01EC7FAF01435B584FFA01D3
:103FD00025913491FA013296659174918770869F8C
:103FE000A001879F500D1124F3E056954795FA954F
:103FF000E1F72901441A550A612C712C840C951C97
:10400000A61CB71C80928D0690928E06A0928F06F9
:10401000B092900694CD80E290E0A0E0B0E0A5CF11
:10402000B694A79497948794220F04965FE08936FC
:10403000950709F00BCD20938C0670E2871691044A
:10404000A104B10408F461C070E2871A9108A108C4
:10405000B108811488E09806A104B104F8F0A4E046
:104060009A9EC0011124835B944FFC0132962591E6
:104070003491B82D6627B39FA001B29F410D561F02
:104080000694461F561F1124FC0145905490612C44
:10409000712C441A550A6108710822C0D501C40167
:1040A000B695A79597958795FC01EC7FCF01835B2B
:1040B000984FFC0145905490FC0132962591349123
:1040C000482D4770429FC001439F900D112463E02B
:1040D000969587956A95E1F7481A590A612C712CD3
:1040E0008091830690918406A0918506B091860602
:1040F000840D951DA61DB71D80938306909384069D
:10410000A0938506B09386061ACD70E2872E912C77
:10411000A12CB12C99CFD501C401B695A79597953F
:104120008795FC01EC7FCF01835B984FFC012591C3
:104130003491FC01329645915491682D6770649FCB
:10414000C001659F900D112443E0969587954A958F
:10415000E1F7281B390BC901A0E0B0E0E0CC50E248
:10416000852E912CA12CB12CADCCD501C401B695D6
:10417000A79597958795FC01EC7FCF01835B984FBE
:10418000FC0145905490FC01329625913491482DC4
:104190004770429FC001439F900D112403E0969504
:1041A00087950A95E1F7481A590A612C712C77CE48
:1041B00040E2842E912CA12CB12C47CE80ED482ECC
:1041C00087E0582E612C712CC1CC8F929F92AF92B8
:1041D000BF92CF92DF92EF92FF920F93CF93DF9334
:1041E0001F92CDB7DEB77C015B016A014901809166
:1041F000340D8823E9F0F70180819181C80ED91E22
:10420000D182C08222C001111DC0BE016F5F7F4FED
:10421000C4010E941E39F70180819181019691832A
:104220008083FFEFAF1ABF0A81E0C81AD10869F096
:10423000F701808191810E94FC8389839091C7035B
:104240009111E1CFF5018083E0CF0F90DF91CF9105
:104250000F91FF90EF90DF90CF90BF90AF909F9025
:104260008F9008957F928F929F92AF92BF92CF923C
:10427000DF92EF92FF920F931F93CF93DF931F92E2
:10428000CDB7DEB7E091340DEE2341F0FC01208183
:104290003181420F531F5183408349C069017C0122
:1042A0005B018B01040F151FA016B10609F43FC076
:1042B000F70180809180F50171905F017982C401DE
:1042C0000E94FC83781631F1672DC4010E9404849A
:1042D000C4010E94FC8399818917E1F0EDEAF1E1C4
:1042E00084918F010F5F1F4F882321F00E94E311FB
:1042F000F801F6CFE5E3F1E184918F010F5F1F4FE5
:10430000882321F00E94E311F801F6CF81E0809329
:10431000340D0DC0BE016F5F7F4FC6010E941E3974
:10432000F70180819181019691838083BDCF0F90A9
:10433000DF91CF911F910F91FF90EF90DF90CF9081
:10434000BF90AF909F908F907F900895CF93DF9311
:10435000CDB7DEB72C970FB6F894DEBF0FBECDBF3A
:104360008091AB069091AC06A091AD06B091AE06DF
:1043700089839A83AB83BC838091AF069091B0060A
:10438000A091B106B091B2068D839E83AF83B887AA
:104390008091B3069091B406A091B506B091B6068F
:1043A00089879A87AB87BC870E9449580E947F5AA9
:1043B00080E00E94820F81E00E94820F82E00E94D2
:1043C000820F0E94EA594CE050E06BEA76E0CE01A1
:1043D00001960E945987892B51F02C960FB6F894BC
:1043E000DEBF0FBECDBFDF91CF910C9405162C968A
:1043F0000FB6F894DEBF0FBECDBFDF91CF91089509
:10440000CF92DF92EF92FF92CF93DF93EC01C090B7
:104410008E03D0908F03E0909003F0909103A7015A
:104420009601688179818A819B810E94338087FF10
:1044300004C0C882D982EA82FB82C0909203D090E5
:104440009303E0909403F0909503A70196016C818B
:104450007D818E819F810E94338087FF04C0CC8242
:10446000DD82EE82FF82C0900502D0900602E090CD
:104470000702F0900802A7019601688179818A817C
:104480009B810E948386181624F4C882D982EA820E
:10449000FB82C0900902D0900A02E0900B02F090DB
:1044A0000C02A70196016C817D818E819F810E9403
:1044B0008386181624F4CC82DD82EE82FF82C090BF
:1044C0009603D0909703E0909803F0909903A7018A
:1044D0009601688579858A859B850E94338087FF50
:1044E00004C0C886D986EA86FB86C0900D02D090AB
:1044F0000E02E0900F02F0901002A701960168856D
:1045000079858A859B850E948386181624F4C8863F
:10451000D986EA86FB86DF91CF91FF90EF90DF90FE
:10452000CF900895CF93DF93ECE5F5E08491EF0110
:104530002196882321F00E94E311FE01F7CF8AE043
:10454000DF91CF910C94E3114F925F926F927F9223
:104550008F929F92AF92BF92CF92DF92EF92FF9293
:104560000F931F93CF93DF93CDB7DEB728970FB686
:10457000F894DEBF0FBECDBFC82EB42EA52E962E4A
:10458000872ED22E20E030E0A9016B2D7A2D892DC7
:10459000982D0E94838618166CF0B0902002A0908F
:1045A0002102909022028090230255E545E535E0F6
:1045B00023E402C0A5019401852F942FA32FB22FCD
:1045C0008093200290932102A0932202B0932302B1
:1045D0008091BF0D8C1509F471C0D11006C00E94E6
:1045E000B638882311F0DD24D3940E94D911EC2C25
:1045F000F12C0091BF0D10E0F701EE0FFF1FEE0F41
:10460000FF1FEE55FC4FD801AA0FBB1FAA0FBB1FFF
:10461000AE55BC4F2D913D914D915C916081718162
:10462000828193810E945C842B013C01F701EE0F93
:10463000FF1FEE0FFF1FE656FC4F000F111F000F6C
:10464000111FD801A656BC4F2D913D914D915C9103
:1046500060817181828193810E945C842091AB068C
:104660003091AC064091AD065091AE060E945D843B
:104670006093AB067093AC068093AD069093AE0644
:10468000A30192016091AF067091B0068091B106CE
:104690009091B2060E945D846093AF067093B0065D
:1046A0008093B1069093B206C092BF0D0E94C20FD4
:1046B000D11004C08091150281113BC00E940259A3
:1046C0008B2D9A2DA92DB82D809320029093210235
:1046D000A0932202B0932302EDEAF1E184918F01CD
:1046E0000F5F1F4F882321F00E94E311F801F6CFDE
:1046F0006091BF0D70E083E291E10E94E3568AE091
:104700000E94E31128960FB6F894DEBF0FBECDBF0E
:10471000DF91CF911F910F91FF90EF90DF90CF909D
:10472000BF90AF909F908F907F906F905F904F90D1
:10473000089520E030E040E85FE36091B3067091B7
:10474000B4068091B5069091B6060E945D84609390
:10475000B3067093B4068093B5069093B606E090C6
:10476000BF0D1D821E821F821886CE0105966C0128
:1047700008E017E027EB36E043EB56E06FEA76E01F
:104780008BEA96E0B4D619821A821B821C82E090D2
:10479000B70DF090B80D0091B90D1091BA0D2091A0
:1047A000B30D3091B40D4091B50D5091B60D60919F
:1047B000AF0D7091B00D8091B10D9091B20DFE01D1
:1047C00031966F010E94E63779CF4F925F926F92D8
:1047D0007F928F929F92AF92BF92DF92EF92FF9261
:1047E0000F931F93CF93DF93D82EC82FD0E0FE01F5
:1047F000ED58FB4F64917E01EE0CFF1CEE0CFF1C8C
:10480000F701E95EFE4E4590559065907490062E36
:10481000000C770B880B990B0E9439804B015C01CF
:1048200020E030E040EC5FE3C301B2010E949880D9
:10483000A50194010E949880AB01BC0100E010E04A
:1048400098018D2D0E94FF0FF701E55FFE4E259127
:10485000359145915491C501B4010E9498804B0156
:104860005C0120E030E0A9010E943380882309F434
:1048700047C000E010E09801B501A40170588D2DEB
:104880000E94FF0FFE01E85FFE4E6491611117C0A8
:10489000EDEAF1E18491EF012196882321F00E9455
:1048A000E311FE01F7CFE6EEF0E18491EF012196EE
:1048B000882321F00E94E311FE01F7CF6AE0F7019F
:1048C000ED59FE4E459055906590749070E080E0F3
:1048D00090E00E9439809B01AC01C301B2010E94AB
:1048E00039852B013C01A5019401C501B4010E9449
:1048F0005D84AB01BC01930182018D2D0E94FF0FED
:1049000081E090E00D2C01C0880F0A94EAF79091A5
:104910004803982B909348039091AA06892B809383
:10492000AA06F701EC5DFC4F1082118212821382FD
:104930008D2D0E94820FF701E75BFB4F85919591CA
:10494000A591B491E701C555D94F88839983AA836E
:10495000BB830E94C20FF701E155F24F8881998114
:10496000AA81BB8180839183A283B383DF91CF919E
:104970001F910F91FF90EF90DF90BF90AF909F90AD
:104980008F907F906F905F904F900895EF92FF927D
:104990000F931F93CF93DF931F921F92CDB7DEB774
:1049A00082E08093C0001092C50087E08093C4002D
:1049B0008091C10080618093C1008091C1008860B6
:1049C0008093C1008091C10080688093C100EFEDA9
:1049D000F0E184918F010F5F1F4F882321F00E9427
:1049E000E311F801F6CFEDEAF1E184918F010F5F59
:1049F0001F4F882321F00E94E311F801F6CF14B76E
:104A000010FF0DC0E6EDF0E184917F019FEFE91A00
:104A1000F90A882321F00E94E311F701F5CF11FF75
:104A20000DC0E5ECF0E184917F019FEFE91AF90AEE
:104A3000882321F00E94E311F701F5CF12FF0DC08A
:104A4000E3EBF0E184917F019FEFE91AF90A8823F3
:104A500021F00E94E311F701F5CF13FF0DC0E2EA48
:104A6000F0E184917F019FEFE91AF90A882321F090
:104A70000E94E311F701F5CF15FF0CC0E1E9F0E169
:104A800084918F010F5F1F4F882321F00E94E31153
:104A9000F801F6CF14BEEAE8F0E184918F010F5FD0
:104AA0001F4F882321F00E94E311F801F6CF80E226
:104AB0000E94E311E3E8F0E184918F010F5F1F4F43
:104AC000882321F00E94E311F801F6CF8AE00E94CA
:104AD000E311EDEAF1E184918F010F5F1F4F88230D
:104AE00021F00E94E311F801F6CFE3E7F0E18491B1
:104AF0008F010F5F1F4F882321F00E94E311F801FF
:104B0000F6CFE8E6F0E184918F010F5F1F4F882315
:104B100021F00E94E311F801F6CFEEE4F0E1849178
:104B20008F010F5F1F4F882321F00E94E311F801CE
:104B3000F6CFEDEAF1E184918F010F5F1F4F8823DB
:104B400021F00E94E311F801F6CFE7E3F0E1849150
:104B50008F010F5F1F4F882321F00E94E311F8019E
:104B6000F6CFEDEAF1E184918F010F5F1F4F8823AB
:104B700021F00E94E311F801F6CF2091E60D30916B
:104B8000E70DCE0101962115310519F48C5E9D408B
:104B900002C0821B930B9A83898369817A8188E2A0
:104BA00090E10E94E35660ED75E081E190E10E94A2
:104BB000E3568AE00E94E31181E08093C80380936A
:104BC000C9038093CA038093CB030E94E54B8CE01A
:104BD000E6E7F3E0ABEAB6E001900D928A95E1F7E3
:104BE0000E94C20F80912E0290912F029093310269
:104BF0008093300280910101806480930101809153
:104C00000101806280930101259A249A6B9A87EDB5
:104C100080937A0010927E0010927D0080917D003A
:104C2000806280937D0080917D00806880937D000C
:104C300080917D00806480937D0080E888BD8091B4
:104C40006E00846080936E006AEF70E080E090E018
:104C50000E94F05C85E090E09093370D8093360DD4
:104C600060E080913402909135020E94294C20E04E
:104C700030E040EA50E40E94338087FF0AC0809110
:104C8000340290913502409790933502809334021C
:104C9000E7CF83E191E090932F0280932E0260E0B2
:104CA00080913D0D90913E0D0E94294C20E030E80E
:104CB00049E853E40E948386181654F480913D0D10
:104CC00090913E0D409690933E0D80933D0DE7CF21
:104CD00085E090E09093390D8093380D61E08091EC
:104CE0003602909137020E94294C20E030E040EAE1
:104CF00050E40E94338087FF0AC080913602909171
:104D0000370240979093370280933602E7CF83E1D2
:104D100091E0909331028093300261E080913F0DE9
:104D20009091400D0E94294C20E030E849E853E47E
:104D30000E948386181654F480913F0D9091400D87
:104D400040969093400D80933F0DE7CF80913202C3
:104D5000909133020E94D34E20E030E040EA50E4CC
:104D60000E94338087FF0AC0809132029091330203
:104D700040979093330280933202E8CF80913B0DAD
:104D800090913C0D0E94D34E20E030E048EC52E47C
:104D90000E948386181654F480913B0D90913C0D2F
:104DA000409690933C0D80933B0DE8CF0E94D565D3
:104DB00080910A018B7F80930A0180910B0180957D
:104DC00084708093090180910A018D7F80930A018C
:104DD00080910B01809582708093090180910A0176
:104DE0008E7F80930A0180910B0180958170809362
:104DF000090110925A0310925903809107018260B1
:104E000080930701809104018160809304013D9AA1
:104E10003A9A999A0F9A179A9A9AA29A3F9A479A07
:104E20003C9A449A399A419A0E9A1698179A809108
:104E300048038E7F809348038091040182608093B1
:104E4000040180910501827080930301A29A8091F0
:104E500048038D7F809348033E9A4698479A8091F5
:104E600048038B7F809348033B9A4398449A389A2F
:104E70004098419A809180008C7F8093800080913F
:104E80008100877E886080938100809180008F738D
:104E90008093800080918100887F82608093810070
:104EA00080E090E4909389008093880010928500C0
:104EB0001092840080916F00826080936F0081E087
:104EC00080935A0378940E94255698E288E10FB6A1
:104ED000F894A895809360000FBE909360000F90A7
:104EE0000F90DF91CF911F910F91FF90EF90089558
:104EF000179A809148038E7F80934803A29A8091ED
:104F000048038D7F80934803479A809148038B7FA5
:104F1000809348030C94370FE0E7FDE18491EF01A3
:104F20002196882321F00E94E311FE01F7CFE1EFE3
:104F3000FFE08491EF012196882321F00E94E31184
:104F4000FE01F7CF0E94884ED3DF2FEF8BE49DE167
:104F5000215080409040E1F700C00000F8942FEF0E
:104F600084E39CE0215080409040E1F700C00000C5
:104F70000E94884EA895FECF2F923F924F925F924B
:104F80006F927F928F929F92AF92BF92CF92DF9259
:104F9000EF92FF920F931F93CF93DF9300D01F9256
:104FA000CDB7DEB70E94285D6B017C0180910002C5
:104FB000882309F47BC08091D103882309F476C04B
:104FC0004091A2065091A3066091A4067091A50697
:104FD00097018601041B150B260B370B37FD79C093
:104FE000833051F134F481300CF460C0EDEAF1E12A
:104FF00006C0843009F05AC0EDEAF1E13BC084916B
:105000008F010F5F1F4F1B830A83882329F00E94A3
:10501000E311EA81FB81F3CFECE9FFE084918F019A
:105020000F5F1F4F1B830A83882309F43FC00E9430
:10503000E311EA81FB81F2CFEDEAF1E184918F0186
:105040000F5F1F4F1B830A83882329F00E94E311FF
:10505000EA81FB81F3CFE5E8FFE084918F010F5FE8
:105060001F4F1B830A83882309F10E94E311EA8101
:10507000FB81F3CF84918F010F5F1F4F1B830A8346
:10508000882329F00E94E311EA81FB81F3CFEDE64A
:10509000FFE084918F010F5F1F4F1B830A838823DA
:1050A00029F00E94E311EA81FB81F3CF20910002F5
:1050B00030E0A8EEB3E00E944D84C60ED71EE81E75
:1050C000F91EC092A206D092A306E092A406F09226
:1050D000A50680915405843030F40E944914811152
:1050E00002C00E9418130E94285DC0904903D0900E
:1050F0004A03E0904B03F0904C03C114D104E10447
:10510000F10489F100913E0310913F032091400387
:10511000309141030C0D1D1D2E1D3F1D6B017C01A7
:10512000C01AD10AE20AF30AF7FC1DC0E0E7FDE16C
:1051300084918F010F5F1F4F1B830A83882329F0FF
:105140000E94E311EA81FB81F3CF6091AD0D709174
:10515000AE0D87EB9FE00E94FC568AE00E94E311AF
:105160008EEA9FE0D9DEC0900102D0900202E0906A
:105170000302F0900402C114D104E104F104B9F176
:1051800030910A0D2091090D321749F060933E03CA
:1051900070933F03809340039093410328C0009194
:1051A0003E0310913F0320914003309141030C0DC9
:1051B0001D1D2E1D3F1DDC01CB01801B910BA20B81
:1051C000B30BB7FD14C0179A809148038E7F80936C
:1051D0004803A29A809148038D7F80934803479AA1
:1051E000809148038B7F809348030E94370F9091F2
:1051F0000A0D8091090D981791F0E091090D1DE5B8
:10520000E19FF0011124E057F84F60818091090D72
:1052100090910A0D981729F08F5F8F70F9CF6091E8
:105220002D0770E085E00E94295C80913A0D88236B
:1052300009F4FBC000913F0210914002C09041026E
:10524000CC82D0904202DA8260913A0370913B03A3
:105250006E5F7F4F072E000C880B990B0E943980E0
:105260009801A6010E94338087FDDFC0F090090DF0
:10527000212C312CE12C198280910A0D8F1509F413
:1052800060C08F2D90E02DE5289FF001299FF00D43
:105290001124E75CF84F458956896789708D452B45
:1052A000462B472B81F4418D528D638D748D452B98
:1052B000462B472B41F4458D568D678D70A1452BAC
:1052C000462B472BC9F14DE5489F9001499F300D72
:1052D0001124C901875C984F6C01FC0161817281C6
:1052E000838194810E94C8864B015C01F60161A113
:1052F00072A183A194A10E9437802B013C01F60189
:1053000065A176A187A190A50E9437809B01AC0181
:10531000C301B2010E943985A50194010E949880C1
:105320005B016C0191014E2D59810E9483861816F4
:105330001CF41501EC2CD98281E08F0D8F70F82EB2
:105340009BCF2091430230914402409145025091FD
:105350004602B1018E2D99810E94988098014C815E
:105360005A810E945D846B017C019B01AC01B801F4
:105370008C819A810E9483861816B4F000913B02BA
:1053800010913C02F0913D02FC8320913E022A8361
:1053900098014F2F5A81B601C7010E9483861816C3
:1053A0001CF08601EC82FA82C090A606D090A70677
:1053B000E090A806F090A90698014C815A81C70197
:1053C000B6010E9483861816D4F420E037ED43EA34
:1053D0005CE3B8018C819A810E9498804B015C014A
:1053E00028E431EE4AE75FE3C701B6010E949880E6
:1053F000A50194010E945D848B018C839A83C8016E
:10540000AC81BA818093A6069093A706A093A806C4
:10541000B093A906B801CD010E94A18570933B030A
:1054200060933A0380E00E94314E0E948D52809139
:105430003903882309F444C00E94285D0091350394
:10544000109136032091370330913803DC01CB01F2
:10545000801B910BA20BB30BB7FD32C00E94285DDD
:105460006B017C012091390330E0A8EEB3E00E948B
:105470004D84C60ED71EE81EF91EC0923503D09289
:105480003603E0923703F09238030E94CF4C8AE053
:105490000F900F900F900F90DF91CF911F910F9170
:1054A000FF90EF90DF90CF90BF90AF909F908F9044
:1054B0007F906F905F904F903F902F900C94E311EE
:1054C0000F900F900F900F90DF91CF911F910F9140
:1054D000FF90EF90DF90CF90BF90AF909F908F9014
:1054E0007F906F905F904F903F902F9008952F92F4
:1054F0003F924F925F926F927F928F929F92AF9264
:10550000BF92CF92DF92EF92FF920F931F93CF93B0
:10551000DF93CDB7DEB7CB56D1090FB6F894DEBF17
:105520000FBECDBFE0912C0DF0912D0DEF2B09F0AA
:10553000EFC72D96DFAECEAE2D973E2C79016A01D6
:105540005B01FC0120911C0D30911D0D40911E0D41
:1055500050911F0D60817181828193810E9498809A
:105560000E948E86A3966CAF7DAF8EAF9FAFA39740
:105570002091200D3091210D4091220D5091230D4D
:10558000D5016D917D918D919C910E9498800E9492
:105590008E86A7966CAF7DAF8EAF9FAFA7972091F9
:1055A000240D3091250D4091260D5091270DF601C7
:1055B00060817181828193810E9498800E948E8691
:1055C000AB966CAF7DAF8EAF9FAFAB972091280DA0
:1055D0003091290D40912A0D50912B0DD7016D91DD
:1055E0007D918D919C910E9498800E948E862B9631
:1055F0006CAF7DAF8EAF9FAF2B9780911B0D83FF5C
:105600000EC02B964CAC5DAC6EAC7FAC2B97409231
:10561000170D5092180D6092190D70921A0DD80145
:10562000BC91BDA7F801F181F9ABD8011296BC91EC
:10563000B9AFF801238080910A0D9091090D891B63
:105640008F708F3011F498DCF6CF40900A0DAC9635
:105650004FAEAC9780910A0D682E712C78A66FA280
:1056600080910B0D90910C0DA0910D0DB0910E0D30
:10567000A3968CAC9DACAEACBFACA397881A990A2C
:10568000AA0ABB0A80910F0D9091100DA091110DE7
:10569000B091120DA7964CAC5DAC6EAC7FACA797E9
:1056A000481A590A6A0A7B0A4BA25CA26DA27EA222
:1056B0008091130D9091140DA091150DB091160DC0
:1056C000AB964CAC5DAC6EAC7FACAB97481A590A4C
:1056D0006A0A7B0A49A65AA66BA67CA68091170D7A
:1056E0009091180DA091190DB0911A0D2B964CACFC
:1056F0005DAC6EAC7FAC2B97481A590A6A0A7B0ADC
:1057000009F49DC080912F0724E0329E800111246E
:1057100081113CC0F801E05DF84F608171818281A8
:1057200093810E94A18520912C0230912D02621755
:10573000730764F52B964CAC5DAC6EAC7FAC2B97CD
:105740004092170D5092180D6092190D70921A0D1B
:10575000EDEAF1E184917F012FEFE21AF20A811163
:1057600003C0E2E9F1E104C00E94E311F701F2CFC6
:1057700084917F013FEFE31AF30A882321F00E940E
:10578000E311F701F5CF412C512C32010C5D1D4F77
:10579000C301B2010E943980D8012D913D914D91F4
:1057A0005C910E9498806B017C0120E030E0A901AF
:1057B0000E94838687FF04C0F7FAF094F7F8F0940C
:1057C0006091280D7091290D80912A0D90912B0DDB
:1057D0000E94A1859B01AC01A8ECB0E00E9443842B
:1057E0000E943980A70196010E94338087FF2AC05A
:1057F0002B964CAC5DAC6EAC7FAC2B974092170DEA
:105800005092180D6092190D70921A0DEDEAF1E1A7
:1058100084918F010F5F1F4F811103C0E3E7F1E116
:1058200004C00E94E311F801F3CF84918F010F5F50
:105830001F4F882321F00E94E311F801F6CF412C7D
:10584000512C3201D501C4018827B7FD83959927D2
:10585000AA27BB27182F2BA13CA14DA15EA157FD64
:10586000126089A59AA5ABA5BCA5B7FD146077FC0D
:105870001860A4E03A9EC0011124FC01EC5DFD4FCC
:105880007F01C301B2010E943980D7012D913D9162
:105890004D915C910E9498806B017C0120E030E08A
:1058A000A9010E94838687FF04C0C701B6019058F2
:1058B00002C0C701B60120E030E040E05FE30E9493
:1058C0005D840E94A6856DAB7EAB8FAB98AF8DE5F6
:1058D0004FA058A4849DF001859DF00D1124E75C34
:1058E000F84F1082EA5BFF4F1083B501A401B7FEA9
:1058F00007C044275527BA01481959096A097B0985
:105900008DE56FA078A4869DF001879DF00D112490
:10591000E75CF84F458B568B678B708F8BA19CA1F2
:10592000ADA1BEA1B7FF07C0B095A0959095819598
:105930009F4FAF4FBF4F2DE50FA118A5209FF0013E
:10594000219FF00D1124E75CF84F818F928FA38F78
:10595000B48F09A51AA52BA53CA537FF07C0309524
:105960002095109501951F4F2F4F3F4FEDE57E2E4F
:105970004FA058A4749CF001759CF00D1124E75CB5
:10598000F84F058F168F278F30A34DA85EA86FA8FC
:1059900078AC41A252A263A274A23A01F62FE72F7B
:1059A000481759076A077B0718F43C01FA2FEB2FB9
:1059B000C301AF2FBE2F80179107A207B30710F4C2
:1059C000D901C8014DA85EA86FA878AC84159505CB
:1059D000A605B70510F4D301C2012DE56FA078A488
:1059E000269DF001279DF00D1124E75CF84F85A35B
:1059F00096A3A7A3B0A70697A105B10508F481C592
:105A0000DF01A95ABF4F80912D0790912E078D93EA
:105A10009C9331A6452B462B472B09F017988DE513
:105A20000FA118A5809FF001819FF00D1124E75C64
:105A3000F84F818D928DA38DB48D892B8A2B8B2B62
:105A400009F0A2988DE54FA058A4849DF001859D92
:105A5000F00D1124E75CF84F858D968DA78DB0A1D0
:105A6000892B8A2B8B2B09F047984DA85EA86FA82D
:105A700078AC45284628472809F44CC58091320D5A
:105A8000882319F081508093320D8091330D882343
:105A900091F081508093330D332029F05524539495
:105AA000351471F016C0811101C0419A449880E20A
:105AB0008093320D0EC03320C1F3F1E03F1209C0D4
:105AC0008091320D811101C0449A419880E2809307
:105AD000330D6090290770902A0700912B071091D1
